{
  "contractName": "CivilRegistry",
  "abi": [
    {
      "inputs": [],
      "stateMutability": "nonpayable",
      "type": "constructor"
    },
    {
      "inputs": [],
      "name": "owner",
      "outputs": [
        {
          "internalType": "address",
          "name": "",
          "type": "address"
        }
      ],
      "stateMutability": "view",
      "type": "function",
      "constant": true
    },
    {
      "inputs": [
        {
          "internalType": "address",
          "name": "",
          "type": "address"
        }
      ],
      "name": "records",
      "outputs": [
        {
          "internalType": "address",
          "name": "id",
          "type": "address"
        },
        {
          "internalType": "string",
          "name": "name",
          "type": "string"
        },
        {
          "internalType": "string",
          "name": "birthDate",
          "type": "string"
        },
        {
          "internalType": "string",
          "name": "marriageDate",
          "type": "string"
        },
        {
          "internalType": "string",
          "name": "deathDate",
          "type": "string"
        }
      ],
      "stateMutability": "view",
      "type": "function",
      "constant": true
    },
    {
      "inputs": [
        {
          "internalType": "string",
          "name": "name",
          "type": "string"
        },
        {
          "internalType": "string",
          "name": "birthDate",
          "type": "string"
        }
      ],
      "name": "addRecord",
      "outputs": [],
      "stateMutability": "nonpayable",
      "type": "function"
    },
    {
      "inputs": [
        {
          "internalType": "address",
          "name": "add",
          "type": "address"
        }
      ],
      "name": "getRecord",
      "outputs": [
        {
          "components": [
            {
              "internalType": "address",
              "name": "id",
              "type": "address"
            },
            {
              "internalType": "string",
              "name": "name",
              "type": "string"
            },
            {
              "internalType": "string",
              "name": "birthDate",
              "type": "string"
            },
            {
              "internalType": "string",
              "name": "marriageDate",
              "type": "string"
            },
            {
              "internalType": "string",
              "name": "deathDate",
              "type": "string"
            }
          ],
          "internalType": "struct CivilRegistry.Record",
          "name": "",
          "type": "tuple"
        }
      ],
      "stateMutability": "view",
      "type": "function",
      "constant": true
    },
    {
      "inputs": [
        {
          "internalType": "address",
          "name": "add",
          "type": "address"
        },
        {
          "internalType": "string",
          "name": "recordType",
          "type": "string"
        },
        {
          "internalType": "string",
          "name": "date",
          "type": "string"
        }
      ],
      "name": "updateRecord",
      "outputs": [],
      "stateMutability": "nonpayable",
      "type": "function"
    },
    {
      "inputs": [],
      "name": "getIds",
      "outputs": [
        {
          "internalType": "address[]",
          "name": "",
          "type": "address[]"
        }
      ],
      "stateMutability": "view",
      "type": "function",
      "constant": true
    }
  ],
  "bytecode": "0x608060405234801561001057600080fd5b5033600260006101000a81548173ffffffffffffffffffffffffffffffffffffffff021916908373ffffffffffffffffffffffffffffffffffffffff160217905550611a71806100616000396000f3fe608060405234801561001057600080fd5b50600436106100625760003560e01c80632b10566314610067578063469e906714610085578063617fba04146100b95780638da5cb5b146100e9578063a1f23f1914610107578063c959624814610123575b600080fd5b61006f61013f565b60405161007c9190610e47565b60405180910390f35b61009f600480360381019061009a9190610ea9565b6101cd565b6040516100b0959493929190610f75565b60405180910390f35b6100d360048036038101906100ce9190610ea9565b610443565b6040516100e091906110b9565b60405180910390f35b6100f1610809565b6040516100fe91906110db565b60405180910390f35b610121600480360381019061011c919061122b565b61082f565b005b61013d600480360381019061013891906112b6565b610a8a565b005b606060018054806020026020016040519081016040528092919081815260200182805480156101c357602002820191906000526020600020905b8160009054906101000a900473ffffffffffffffffffffffffffffffffffffffff1673ffffffffffffffffffffffffffffffffffffffff1681526020019060010190808311610179575b5050505050905090565b60006020528060005260406000206000915090508060000160009054906101000a900473ffffffffffffffffffffffffffffffffffffffff16908060010180546102169061135d565b80601f01602080910402602001604051908101604052809291908181526020018280546102429061135d565b801561028f5780601f106102645761010080835404028352916020019161028f565b820191906000526020600020905b81548152906001019060200180831161027257829003601f168201915b5050505050908060020180546102a49061135d565b80601f01602080910402602001604051908101604052809291908181526020018280546102d09061135d565b801561031d5780601f106102f25761010080835404028352916020019161031d565b820191906000526020600020905b81548152906001019060200180831161030057829003601f168201915b5050505050908060030180546103329061135d565b80601f016020809104026020016040519081016040528092919081815260200182805461035e9061135d565b80156103ab5780601f10610380576101008083540402835291602001916103ab565b820191906000526020600020905b81548152906001019060200180831161038e57829003601f168201915b5050505050908060040180546103c09061135d565b80601f01602080910402602001604051908101604052809291908181526020018280546103ec9061135d565b80156104395780601f1061040e57610100808354040283529160200191610439565b820191906000526020600020905b81548152906001019060200180831161041c57829003601f168201915b5050505050905085565b61044b610d12565b600073ffffffffffffffffffffffffffffffffffffffff166000808473ffffffffffffffffffffffffffffffffffffffff1673ffffffffffffffffffffffffffffffffffffffff16815260200190815260200160002060000160009054906101000a900473ffffffffffffffffffffffffffffffffffffffff1673ffffffffffffffffffffffffffffffffffffffff160361051b576040517f08c379a0000000000000000000000000000000000000000000000000000000008152600401610512906113da565b60405180910390fd5b6000808373ffffffffffffffffffffffffffffffffffffffff1673ffffffffffffffffffffffffffffffffffffffff1681526020019081526020016000206040518060a00160405290816000820160009054906101000a900473ffffffffffffffffffffffffffffffffffffffff1673ffffffffffffffffffffffffffffffffffffffff1673ffffffffffffffffffffffffffffffffffffffff1681526020016001820180546105ca9061135d565b80601f01602080910402602001604051908101604052809291908181526020018280546105f69061135d565b80156106435780601f1061061857610100808354040283529160200191610643565b820191906000526020600020905b81548152906001019060200180831161062657829003601f168201915b5050505050815260200160028201805461065c9061135d565b80601f01602080910402602001604051908101604052809291908181526020018280546106889061135d565b80156106d55780601f106106aa576101008083540402835291602001916106d5565b820191906000526020600020905b8154815290600101906020018083116106b857829003601f168201915b505050505081526020016003820180546106ee9061135d565b80601f016020809104026020016040519081016040528092919081815260200182805461071a9061135d565b80156107675780601f1061073c57610100808354040283529160200191610767565b820191906000526020600020905b81548152906001019060200180831161074a57829003601f168201915b505050505081526020016004820180546107809061135d565b80601f01602080910402602001604051908101604052809291908181526020018280546107ac9061135d565b80156107f95780601f106107ce576101008083540402835291602001916107f9565b820191906000526020600020905b8154815290600101906020018083116107dc57829003601f168201915b5050505050815250509050919050565b600260009054906101000a900473ffffffffffffffffffffffffffffffffffffffff1681565b600073ffffffffffffffffffffffffffffffffffffffff166000808573ffffffffffffffffffffffffffffffffffffffff1673ffffffffffffffffffffffffffffffffffffffff16815260200190815260200160002060000160009054906101000a900473ffffffffffffffffffffffffffffffffffffffff1673ffffffffffffffffffffffffffffffffffffffff16036108ff576040517f08c379a00000000000000000000000000000000000000000000000000000000081526004016108f6906113da565b60405180910390fd5b60405160200161090e90611451565b60405160208183030381529060405280519060200120826040516020016109359190611497565b60405160208183030381529060405280519060200120036109a457806000808573ffffffffffffffffffffffffffffffffffffffff1673ffffffffffffffffffffffffffffffffffffffff168152602001908152602001600020600301908161099e9190611664565b50610a85565b6040516020016109b390611782565b60405160208183030381529060405280519060200120826040516020016109da9190611497565b6040516020818303038152906040528051906020012003610a4957806000808573ffffffffffffffffffffffffffffffffffffffff1673ffffffffffffffffffffffffffffffffffffffff1681526020019081526020016000206004019081610a439190611664565b50610a84565b6040517f08c379a0000000000000000000000000000000000000000000000000000000008152600401610a7b90611809565b60405180910390fd5b5b505050565b600260009054906101000a900473ffffffffffffffffffffffffffffffffffffffff1673ffffffffffffffffffffffffffffffffffffffff163373ffffffffffffffffffffffffffffffffffffffff1614610b1a576040517f08c379a0000000000000000000000000000000000000000000000000000000008152600401610b119061189b565b60405180910390fd5b6000610b24610cc9565b90506040518060a001604052808273ffffffffffffffffffffffffffffffffffffffff168152602001848152602001838152602001604051806020016040528060008152508152602001604051806020016040528060008152508152506000808373ffffffffffffffffffffffffffffffffffffffff1673ffffffffffffffffffffffffffffffffffffffff16815260200190815260200160002060008201518160000160006101000a81548173ffffffffffffffffffffffffffffffffffffffff021916908373ffffffffffffffffffffffffffffffffffffffff1602179055506020820151816001019081610c1b9190611664565b506040820151816002019081610c319190611664565b506060820151816003019081610c479190611664565b506080820151816004019081610c5d9190611664565b509050506001819080600181540180825580915050600190039060005260206000200160009091909190916101000a81548173ffffffffffffffffffffffffffffffffffffffff021916908373ffffffffffffffffffffffffffffffffffffffff160217905550505050565b60008042600143610cda91906118ea565b404133604051602001610cf094939291906119ed565b6040516020818303038152906040528051906020012090508060001c91505090565b6040518060a00160405280600073ffffffffffffffffffffffffffffffffffffffff168152602001606081526020016060815260200160608152602001606081525090565b600081519050919050565b600082825260208201905092915050565b6000819050602082019050919050565b600073ffffffffffffffffffffffffffffffffffffffff82169050919050565b6000610dae82610d83565b9050919050565b610dbe81610da3565b82525050565b6000610dd08383610db5565b60208301905092915050565b6000602082019050919050565b6000610df482610d57565b610dfe8185610d62565b9350610e0983610d73565b8060005b83811015610e3a578151610e218882610dc4565b9750610e2c83610ddc565b925050600181019050610e0d565b5085935050505092915050565b60006020820190508181036000830152610e618184610de9565b905092915050565b6000604051905090565b600080fd5b600080fd5b610e8681610da3565b8114610e9157600080fd5b50565b600081359050610ea381610e7d565b92915050565b600060208284031215610ebf57610ebe610e73565b5b6000610ecd84828501610e94565b91505092915050565b610edf81610da3565b82525050565b600081519050919050565b600082825260208201905092915050565b60005b83811015610f1f578082015181840152602081019050610f04565b60008484015250505050565b6000601f19601f8301169050919050565b6000610f4782610ee5565b610f518185610ef0565b9350610f61818560208601610f01565b610f6a81610f2b565b840191505092915050565b600060a082019050610f8a6000830188610ed6565b8181036020830152610f9c8187610f3c565b90508181036040830152610fb08186610f3c565b90508181036060830152610fc48185610f3c565b90508181036080830152610fd88184610f3c565b90509695505050505050565b600082825260208201905092915050565b600061100082610ee5565b61100a8185610fe4565b935061101a818560208601610f01565b61102381610f2b565b840191505092915050565b600060a0830160008301516110466000860182610db5565b506020830151848203602086015261105e8282610ff5565b915050604083015184820360408601526110788282610ff5565b915050606083015184820360608601526110928282610ff5565b915050608083015184820360808601526110ac8282610ff5565b9150508091505092915050565b600060208201905081810360008301526110d3818461102e565b905092915050565b60006020820190506110f06000830184610ed6565b92915050565b600080fd5b600080fd5b7f4e487b7100000000000000000000000000000000000000000000000000000000600052604160045260246000fd5b61113882610f2b565b810181811067ffffffffffffffff8211171561115757611156611100565b5b80604052505050565b600061116a610e69565b9050611176828261112f565b919050565b600067ffffffffffffffff82111561119657611195611100565b5b61119f82610f2b565b9050602081019050919050565b82818337600083830152505050565b60006111ce6111c98461117b565b611160565b9050828152602081018484840111156111ea576111e96110fb565b5b6111f58482856111ac565b509392505050565b600082601f830112611212576112116110f6565b5b81356112228482602086016111bb565b91505092915050565b60008060006060848603121561124457611243610e73565b5b600061125286828701610e94565b935050602084013567ffffffffffffffff81111561127357611272610e78565b5b61127f868287016111fd565b925050604084013567ffffffffffffffff8111156112a05761129f610e78565b5b6112ac868287016111fd565b9150509250925092565b600080604083850312156112cd576112cc610e73565b5b600083013567ffffffffffffffff8111156112eb576112ea610e78565b5b6112f7858286016111fd565b925050602083013567ffffffffffffffff81111561131857611317610e78565b5b611324858286016111fd565b9150509250929050565b7f4e487b7100000000000000000000000000000000000000000000000000000000600052602260045260246000fd5b6000600282049050600182168061137557607f821691505b6020821081036113885761138761132e565b5b50919050565b7f4e6f207265636f726420666f756e6420666f7220746869732061646472657373600082015250565b60006113c4602083610ef0565b91506113cf8261138e565b602082019050919050565b600060208201905081810360008301526113f3816113b7565b9050919050565b600081905092915050565b7f4d00000000000000000000000000000000000000000000000000000000000000600082015250565b600061143b6001836113fa565b915061144682611405565b600182019050919050565b600061145c8261142e565b9150819050919050565b600061147182610ee5565b61147b81856113fa565b935061148b818560208601610f01565b80840191505092915050565b60006114a38284611466565b915081905092915050565b60008190508160005260206000209050919050565b60006020601f8301049050919050565b600082821b905092915050565b6000600883026115107fffffffffffffffffffffffffffffffffffffffffffffffffffffffffffffffff826114d3565b61151a86836114d3565b95508019841693508086168417925050509392505050565b6000819050919050565b6000819050919050565b600061156161155c61155784611532565b61153c565b611532565b9050919050565b6000819050919050565b61157b83611546565b61158f61158782611568565b8484546114e0565b825550505050565b600090565b6115a4611597565b6115af818484611572565b505050565b5b818110156115d3576115c860008261159c565b6001810190506115b5565b5050565b601f821115611618576115e9816114ae565b6115f2846114c3565b81016020851015611601578190505b61161561160d856114c3565b8301826115b4565b50505b505050565b600082821c905092915050565b600061163b6000198460080261161d565b1980831691505092915050565b6000611654838361162a565b9150826002028217905092915050565b61166d82610ee5565b67ffffffffffffffff81111561168657611685611100565b5b611690825461135d565b61169b8282856115d7565b600060209050601f8311600181146116ce57600084156116bc578287015190505b6116c68582611648565b86555061172e565b601f1984166116dc866114ae565b60005b82811015611704578489015182556001820191506020850194506020810190506116df565b86831015611721578489015161171d601f89168261162a565b8355505b6001600288020188555050505b505050505050565b7f4400000000000000000000000000000000000000000000000000000000000000600082015250565b600061176c6001836113fa565b915061177782611736565b600182019050919050565b600061178d8261175f565b9150819050919050565b7f496e76616c6964207265636f726420747970652e2055736520274d2720666f7260008201527f206d61727269616765206f722027442720666f722064656174682e0000000000602082015250565b60006117f3603b83610ef0565b91506117fe82611797565b604082019050919050565b60006020820190508181036000830152611822816117e6565b9050919050565b7f4f6e6c7920746865206f776e65722063616e206578656375746520746869732060008201527f66756e6374696f6e000000000000000000000000000000000000000000000000602082015250565b6000611885602883610ef0565b915061189082611829565b604082019050919050565b600060208201905081810360008301526118b481611878565b9050919050565b7f4e487b7100000000000000000000000000000000000000000000000000000000600052601160045260246000fd5b60006118f582611532565b915061190083611532565b9250828203905081811115611918576119176118bb565b5b92915050565b6000819050919050565b61193961193482611532565b61191e565b82525050565b6000819050919050565b6000819050919050565b61196461195f8261193f565b611949565b82525050565b600061197582610d83565b9050919050565b60008160601b9050919050565b60006119948261197c565b9050919050565b60006119a682611989565b9050919050565b6119be6119b98261196a565b61199b565b82525050565b60006119cf82611989565b9050919050565b6119e76119e282610da3565b6119c4565b82525050565b60006119f98287611928565b602082019150611a098286611953565b602082019150611a1982856119ad565b601482019150611a2982846119d6565b6014820191508190509594505050505056fea2646970667358221220497b343cc6d8f72bc048a72e11485ff2a7a1bc80553b482250a086a4bdf0989764736f6c63430008140033",
  "immutableReferences": {},
  "source": "// SPDX-License-Identifier: MIT\r\npragma solidity >=0.8.0;\r\n\r\ncontract CivilRegistry {\r\n    // Struct to hold record information\r\n    struct Record {\r\n        address id;             // Unique ID (address) for the record\r\n        string name;            // Name of the person\r\n        string birthDate;       // Birth date\r\n        string marriageDate;    // Marriage date (optional)\r\n        string deathDate;       // Death date (optional)\r\n    }\r\n\r\n    // Mapping from address (unique ID) to Record\r\n    mapping(address => Record) public records;\r\n\r\n    // Dynamic array to store all added IDs\r\n    address[] private allIds;\r\n\r\n    // Address of the municipality employee (contract owner)\r\n    address public owner;\r\n\r\n    // Constructor to set the contract owner\r\n    constructor() {\r\n        owner = msg.sender;\r\n    }\r\n\r\n    // Modifier to restrict access to only the owner\r\n    modifier onlyOwner() {\r\n        require(msg.sender == owner, \"Only the owner can execute this function\");\r\n        _;\r\n    }\r\n\r\n    // Function to generate a unique address ID\r\n    /*function generateUniqueId() internal view returns (address) {\r\n        bytes32 hash = keccak256(\r\n            abi.encodePacked(\r\n                block.timestamp,\r\n                block.prevrandao,\r\n                block.coinbase,\r\n                msg.sender\r\n            )\r\n        );\r\n        return address(uint160(uint256(hash)));\r\n    }*/\r\n\r\n    function generateUniqueId() internal view returns (address) {\r\n    bytes32 hash = keccak256(\r\n        abi.encodePacked(\r\n            block.timestamp,\r\n            blockhash(block.number - 1), // Remplacement ici\r\n            block.coinbase,\r\n            msg.sender\r\n        )\r\n    );\r\n    return address(uint160(uint256(hash)));\r\n}\r\n\r\n\r\n    // Function to add a new record, only executable by the owner\r\n    function addRecord(string memory name, string memory birthDate) public onlyOwner {\r\n        // Generate a unique address ID for the record\r\n        address uniqueId = generateUniqueId();\r\n        //address uniqueId = 0x2b0424B12A1c27C818fE9C24641b06291D8AB418;\r\n        // Add the record to the mapping\r\n        records[uniqueId] = Record({\r\n            id: uniqueId,\r\n            name: name,\r\n            birthDate: birthDate,\r\n            marriageDate: \"\",\r\n            deathDate: \"\"\r\n        });\r\n\r\n        // Store the ID in the array\r\n        allIds.push(uniqueId);\r\n    }\r\n\r\n    // Function to retrieve a record based on the caller's address\r\n    function getRecord(address add) public view returns (Record memory) {\r\n        require(records[add].id != address(0), \"No record found for this address\");\r\n        return records[add];\r\n    }\r\n\r\n    // Function to update a record's marriage or death date\r\n    function updateRecord(address add,string memory recordType, string memory date) public {\r\n        require(records[add].id != address(0), \"No record found for this address\");\r\n\r\n        if (keccak256(abi.encodePacked(recordType)) == keccak256(abi.encodePacked(\"M\"))) {\r\n            // Update marriage date\r\n            records[add].marriageDate = date;\r\n        } else if (keccak256(abi.encodePacked(recordType)) == keccak256(abi.encodePacked(\"D\"))) {\r\n            // Update death date\r\n            records[add].deathDate = date;\r\n        } else {\r\n            revert(\"Invalid record type. Use 'M' for marriage or 'D' for death.\");\r\n        }\r\n    }\r\n\r\n    // Function to get all IDs\r\n    function getIds() public view returns (address[] memory) {\r\n        return allIds;\r\n    }\r\n}",
  "sourcePath": "C:\\Blockchain_Project\\bc_flutter\\contracts\\CivilRegistry.sol",
  "compiler": {
    "name": "solc",
    "version": "0.8.20+commit.a1b79de6.Emscripten.clang"
  },
  "schemaVersion": "3.4.16",
  "updatedAt": "2024-12-11T09:27:26.440Z",
  "networkType": "ethereum",
  "devdoc": {
    "kind": "dev",
    "methods": {},
    "version": 1
  },
  "userdoc": {
    "kind": "user",
    "methods": {},
    "version": 1
  }
}